:1037BE002563256325630057656C636F6D65205423
:1037CE006F20546865726D616C204261747465720D
:1037DE007920546573742053797374656D30300D90
:1037EE000A00243030303030314E4E0025303278E1
:1037FE003A253032783A25303278002530352E3160
:10380E0066000D0A20494E56414C4944204B31204A
:10381E0052454C41592053544152542054494D4520
:10382E000D0A0020202020202020202020202020D3
:10383E0020202020202020000D0A20494E56414CE9
:10384E004944204B312052454C41592053544F503E
:10385E002054494D450D0A000D0A20494E56414C43
:10386E004944204B322052454C4159205354415229
:10387E00542054494D450D0A000D0A20494E56411B
:10388E004C4944204B322052454C41592053544F01
:10389E00502054494D450D0A000D0A20494E5641FF
:1038AE004C4944204B332052454C415920535441EE
:1038BE0052542054494D450D0A000D0A20494E56CA
:1038CE00414C4944204B332052454C4159205354CE
:1038DE004F502054494D450D0A002530336C64007D
:1038EE000D0A20494E56414C494420505220535403
:1038FE00415254202054494D450D0A002530326462
:10390E00000D0A20494E56414C4944205052204445
:10391E0055524154494F4E202054494D450D0A00F1
:10392E000D0A20494E56414C494420505220434FD7
:10393E00554E54202054494D450D0A002020004973
:10394E004E56414C49442053455454494E475328F2
:10395E00505229000D0A20494E56414C49442050E0
:10396E005220494E54455256414C202054494D4503
:10397E000D0A00494E56414C494420534554544972
:0D398E004E475328544429004543542D0052
:033EFF00010C00B3
:10000300120000D2AF75840F123C147530FF7531A6
:10001300377532BE7533FE753442E4F535FB7A002D
:1000230079231233AB7B007A0079231200007F54CB
:100033001200001200003000097BFF7A3779C512E5
:100043000000E4F52274FFFFFE12000074FFFFFEC0
:1000530012000074FFFFFE12000074FFFFFE120087
:10006300000522E522D3940F40DB750801750902D0
:10007300750A04750B03E4F52212000075840FC2A0
:10008300C930000BC2007BFF7A3779F0120000E51C
:100093000064096051E500640A604BE500640B608D
:1000A30045E500640C603FE500640D6039E50064DC
:1000B3000E6033E500640F602DE50064166027E5EC
:1000C3000064196021E500641A601BE500641B608D
:1000D30015E500641C600FE500641D6009E500641C
:1000E3001E6003120000300005C20012000012005F
:1000F30000780DEFF614B41000508690010C75F0E3
:1001030003A4C58325F0C5837302013C0202BA022E
:10011300044602053D0205EE0206680206D8020700
:10012300480207B1020821020CE70208DB020AE0D9
:10013300022A25020084022AE0E500123202018429
:1001430002016F06017507020F09020B0A02220B57
:1001530002220C02220D02260E021E0F025410026E
:100163008216028818028E1E00000084120000020C
:1001730000841200007F531200007D037F0A020EE9
:10018300D978007C007D017B017A0079001232F47A
:10019300750001E50024FFFFEF25E025E0FEE424E0
:1001A30000FFEE34C0FEE433FDE433FC7B017A0050
:1001B300790075000075003A120000753001753141
:1001C300007532007533007534077B017A007900BE
:1001D300123E0BEF60090500E500D3940A40B4908A
:1001E3000000E0FF64296008EF64306003020364E9
:1001F300900000E0B42903020371900000E0643032
:1002030060030200840203827D0A8040900000E0C4
:10021300B427047D0980027D0780317D03802D7D15
:10022300048029900000E0B425047D01801E900025
:1002330000E0B424047D028013900000E0FF6423F7
:100243006008EF642660030200847D047F310208A6
:10025300A9E50024FFFFEF25E025E0FEE42400FFED
:10026300EE34C0FEE433FDE433FC7B017A00790015
:1002730075000075003A120000120000020084129B
:1002830000000200841200000200847800E6FFC32D
:1002930094005003020084EF940240030200847F21
:1002A300311200007800E6062400F582E43400F5FC
:1002B300837431F0020084E50012320202F8020274
:1002C300F206039909038B0A03DF0B03DF0C03DF39
:1002D3000D03AB0E03920F03E61002EA1604141883
:1002E300041A1E00000084900000742902050D12F8
:1002F300000002008478007C007D017B017A007994
:10030300001232F4750001E50024FFFFEF25E0251C
:10031300E0FEE42400FFEE34C0FEE433FDE433FCEE
:100323007B017A00790075000075003A12000075B0
:1003330030017531007532007533007534077B0168
:100343007A007900123E0BEF60090500E500D394B3
:100353000A40B4900000E0FF6429600BEF64306052
:1003630006120000020084900000E0B4290674FF26
:10037300F0022ACF900000E064306003020084742E
:10038300FFF01200000200847D0A7F320208A97D7B
:10039300037F320208A9900000E0B427047D09809E
:1003A300027D077F320208A9900000E0B425077D93
:1003B300017F320208A9900000E0B424077D027F88
:1003C300320208A9900000E0FF64236008EF64266E
:1003D30060030200847D047F320208A97D047F321A
:1003E3000208A9E50024FFFFEF25E025E0FEE42451
:1003F30000FFEE34C0FEE433FDE433FC7B017A00FE
:10040300790075000075003A120000120000020026
:10041300841200000200847800E6FFC394005003B6
:10042300020084EF940240030200847F3212000032
:100433007800E6062400F582E43400F5837432F094
:10044300020084E50012320204730604C20904792F
:100453000A04800B04800C04800D04870E04BB0F78
:1004630004D41005081605021805111E00000084A7
:10047300123C14022A9B7D0A7F330208A97D047F64
:10048300330208A9900000E0B425077D017F330201
:1004930008A9900000E0B424077D027F330208A975
:1004A300900000E0FF64236008EF6426600302000D
:1004B300847D047F330208A97D037F330208A9905A
:1004C3000000E0B427047D0980027D077F33020822
:1004D300A9E50024FFFFEF25E025E0FEE42400FF6B
:1004E300EE34C0FEE433FDE433FC7B017A00790093
:1004F30075000075003A1200001200000200841219
:1005030000000200849000007430F0022A9B7800FF
:10051300E6FFC394005003020084EF9402400302F9
:1005230000847F331200007800E6062400F582E49D
:100533003400F5837433F0020084E50024F760652A
:1005430024FE24FD501D602214605314606924F8B6
:1005530070030205E8240E60030200847D0A7F34E1
:100563000208A97D047F340208A9900000E0B425A5
:10057300077D017F340208A9900000E0B424077DC1
:10058300027F340208A9900000E0FF64236008EFB3
:10059300642660030200847D047F340208A97D037E
:1005A3007F340208A9900000E0B427047D0980028B
:1005B3007D077F340208A9E50024FFFFEF25E0252E
:1005C300E0FEE42400FFEE34C0FEE433FDE433FC3C
:1005D3007B017A00790075000075003A1200001261
:1005E3000000020084120000020084E50024F7608A
:1005F3005C14601724FC500C601814604924F760E5
:100603005E0200847D047F350208A97D0A7F3502DE
:1006130008A9900000E0B425077D017F350208A9F1
:10062300900000E0B424077D027F350208A9900002
:1006330000E0FF64236008EF642660030200847D0A
:10064300047F350208A97D037F350208A9900000C5
:10065300E0B427047D0980027D077F350208A912D3
:100663000000020084E50024F7605814604724FC6E
:100673005008600D1460450200847D047F36020833
:10068300A9900000E0B425077D017F360208A990F8
:100693000000E0B424077D027F360208A990000021
:1006A300E0FF64236008EF642660030200847D0496
:1006B3007F360208A97D0A7F360208A97D037F36AB
:1006C3000208A9900000E0B427047D0980027D0799
:1006D3007F360208A9E50024F7605814604724FC1C
:1006E3005008600D1460450200847D047F370208C2
:1006F300A9900000E0B425077D017F370208A99087
:100703000000E0B424077D027F370208A9900000AF
:10071300E0FF64236008EF642660030200847D0425
:100723007F370208A97D0A7F370208A97D037F3737
:100733000208A9900000E0B427047D0980027D0728
:100743007F370208A9E50024F7605814604724FCAA
:100753005008600D1460450200847D047F38020850
:10076300A9900000E0B425077D017F380208A99015
:100773000000E0B424077D027F380208A99000003E
:10078300E0FF64236008EF642660030200847D04B5
:100793007F380208A97D0A7F380208A97D037F38C4
:1007A3000208A9900000E07D097F380208A9E5004E
:1007B30024F7605814604724FC5008600D1460450A
:1007C3000200847D047F390208A9900000E0B4256B
:1007D300077D017F390208A9900000E0B424077D5A
:1007E300027F390208A9900000E0FF64236008EF4C
:1007F300642660030200847D047F390208A97D0A10
:100803007F390208A97D037F390208A9900000E01F
:10081300B427047D0980027D077F390208A9E5001A
:1008230024E270030208AF2415B40700400302005A
:100833008490084275F003A4C58325F0C583730231
:10084300089A02088E02085702085702085702083E
:100853005D0208947D047F30804C900000E0B42555
:10086300067D017F30803F900000E0B424067D02C6
:100873007F308032900000E0FF64236008EF64263D
:1008830060030200847D047F30801B7D0A7F3080FB
:10089300157D037F30800F900000E0B427047D09AD
:1008A30080027D077F3012399B0200847800E6FFC7
:1008B300C394005003020084EF94024003020084B7
:1008C3007F301200007800E6062400F582E434004D
:1008D300F5837430F0020084E50024F67003020906
:1008E3006924FC40030209E77003020981147003C1
:1008F300020A1624F624FC4003020A3C7003020A8F
:1009030078147003020AC524156003020084900062
:1009130000E0642770287800E6FFD39409400302BF
:100923000084EF94005003020084EF64036004EF3B
:10093300B406087800167F4C120000020A067800FD
:10094300E6FFD394074003020084EF9400500302B0
:100953000084EF64036004EFB406087800167F4C4C
:10096300120000020A067800E6FFD3940B4003024C
:100973000084EF9400500302008416020A349000AE
:1009830000E0B4240E7800E6D39400500302008400
:10099300020ADA900000E0FF64236005EF6426702A
:1009A300217800E6FFD394044003020084EFC3944C
:1009B300015003020084EFB40406167F4C120000BA
:1009C3008041900000E0642560030200847800E623
:1009D300FFD394005003020084EF9402400302000B
:1009E30084020ADA7800E6FFD39404400302008409
:1009F300EFC394015003020084EFB40406167F4C46
:100A03001200007F531200007F4C12000078001682
:100A13000200847800E6FFD394044003020084EFCD
:100A23009400500302008416E6B403057F4C1200C1
:100A3300007F53120000020ADB900000E0B40207BB
:100A43007D037F01020ED9900000E0B403077D040B
:100A53007F01020ED9900000E0B404077D017F01FD
:100A6300020ED9900000E0640160030200847D025D
:100A73007F01020ED9900000E0B402077D037F01DD
:100A8300020ED9900000E0B403077D047F01020E3B
:100A9300D9900000E0B40418E522700A7522017DA4
:100AA300017F01020ED9E4F5227D047F0F020ED9E6
:100AB300900000E0640160030200847D027F010274
:100AC3000ED97800E6FFD394005003020084EFD3DD
:100AD30094024003020084167F4C020CE1E50024DB
:100AE300F67003020B7024FC4003020BFC7003023C
:100AF3000B90147003020C2B24F624FC4003020C0D
:100B0300417003020C7D147003020CCA24156003A8
:100B1300020084900000E0642770297800E6FFC398
:100B230094094003020084EFC3940050030200843D
:100B3300EF64016004EFB404087800067F4D1200EF
:100B430000020C1B7800E6FFC394074003020084F5
:100B5300EFC394005003020084EF64016004EFB418
:100B630004087800067F4D120000020C1B7800E693
:100B7300FFC3940A4003020084EFC39400500302AE
:100B83000084067F531200007F4D020CE1900000A9
:100B9300E0B424117800E6C3940240030200840603
:100BA3007F4D020CE1900000E0FF64236005EF64D9
:100BB3002670217800E6FFC394034003020084EF0C
:100BC300C394005003020084EFB40206067F4D1263
:100BD30000008044900000E06425600302008478F4
:100BE30000E6FFC394005003020084EF9401400326
:100BF300020084067F4D020CE17800E6FFC39403F4
:100C03004003020084EFC394005003020084EFB456
:100C13000206067F4D1200007F531200007F4D1223
:100C230000007800060200847800E6C394034003C2
:100C3300020084067F531200007F4D020CE19000F6
:100C430000E0B402077D017F01020ED9900000E0AD
:100C5300B403077D027F01020ED9900000E0B404C3
:100C6300077D037F01020ED9900000E06401600359
:100C73000200847D047F01020ED9900000E0B402DB
:100C8300077D017F01020ED9900000E0B403077DC8
:100C9300027F01020ED9900000E0B40418E522702F
:100CA3000A7522017D037F01020ED9E4F5227D043A
:100CB3007F0F020ED9900000E064016003020084FC
:100CC3007D047F01020ED97800E6FFC39400500330
:100CD300020084EF94024003020084067F4D120059
:100CE30000020084E5001232020EDF040D2C090E0F
:100CF300E20A0EFD0B131A0C18650D1CA00E223010
:100D03000F2202102657110EDF12266313265D15DC
:100D13000EDF17174619177E1A17A71B17DC1C18A7
:100D2300101D26691E00000084E47800F690000080
:100D3300E064276003020E36900000E024D0C45420
:100D4300F0FFA3E024D04F900000F0900000E024D7
:100D5300D0C454F0FFA3E024D04F900000F09000E3
:100D630000E024D0FFEFFC900000E024D0FFEFC4AC
:100D730054F04CFC900000E024D0FFE434FFFEEF7D
:100D8300C4F8540FC868FFEEC454F0484CFEA3E007
:100D930024D0FDE434FF4EFEED4FFF900000EEF053
:100DA300A3EFF0900000E0FFC394014079EFD394E8
:100DB300315073A3E0FFC39401405EEFD39412500C
:100DC30058C3900000E09406900000E09420900047
:100DD30000403C7428F07D047F061200007530FF4C
:100DE3007531377532FA900000E0753300543FF5E2
:100DF30034900000E0753500F536900000E075375B
:100E030000F5387B017A0079001233AB0200847459
:100E130027F07D037F06020ED99000007427F07D32
:100E2300037F06020ED99000007427F07D037F062E
:100E3300020ED9900000E064286003020084900051
:100E430000E024D0C454F0FFA3E024D04F9000006E
:100E5300F0900000E024D0C454F0FFA3E024D04F6E
:100E6300900000F0900000E024D0C454F0FFA3E011
:100E730024D04F900000F0900000E0FFC3940040A6
:100E83004BEFD394245045900000E0FFC3940050EF
:100E930003020084EFD394594003020084900000BE
:100EA300E0FFC394005003020084EFD3945940033E
:100EB30002008478007C007D007B017A0079007E4B
:100EC300007F081230C9120000022AA190000074AA
:100ED30028F07D047F06120000020084022AA6E4A3
:100EE300900000F078007C007D017B017A0079009E
:100EF3001232F4E47800F6022AD5900000E0641F71
:100F03006003020FC67800E67016900000E0FCA3B1
:100F1300E0FDA3E0FEA3E0FF9000001231B5804C9A
:100F23007B017A007900123E6EE4FBFA797A784409
:100F3300122AE9122CCD9000001231B5E4FFFEFD18
:100F4300FC900000E0F8A3E0F9A3E0FAA3E0FBC300
:100F53001231A4405D7FC07ED47D017C00900000EF
:100F6300E0F8A3A3A3E0D31231A450467D047F0F7E
:100F73001200007530FF753138753209900000E0BA
:100F8300FCA3E0FDA3E0FEA3E0FFE4122C8FE4FB4F
:100F9300FA797A7844122BF28F368E358D348C336E
:100FA3007B017A0079001233AB900000742EF002BB
:100FB30026503000097BFF7A3879101200007D0338
:100FC30002130E7800E66003021147E50024FFFFD9
:100FD300EF25E025E0FEE42400FFEE34C0FEE43319
:100FE300FDE433FC7B017A00790075000075003A5B
:100FF300120000900000E0900000F0900000E090EC
:101003000000F0900000E0FCA3E0FDA3E0FEA3E0FD
:10101300FF9000001231B5900000E0FCA3E0FDA3B7
:10102300E0FEA3E0FF9000001231B5900000E0FC69
:10103300A3E0FDA3E0FEA3E0FF9000001231B59012
:101043000000E0FCA3E0FDA3E0FEA3E0FF900000AE
:101053001231B5900000E0FCA3E0FDA3E0FEA3E0A5
:10106300FF9000001231B5900000E0FCA3E0FDA367
:10107300E0FEA3E0FF9000001231B5900000E0FC19
:10108300A3E0FDA3E0FEA3E0FF9000001231B590C2
:101093000000E0FFA3E0900000CFF0A3EFF090008A
:1010A30000E0FCA3E0FDA3E0FEA3E0FF900000123C
:1010B30031B5900000E0FFA3E0900000CFF0A3EF74
:1010C300F0900000E0FCA3E0FDA3E0FEA3E0FF90AE
:1010D30000001231B578007C007D017B017A007934
:1010E300001232F4E50024FFFFEF25E025E0FEE4E3
:1010F3002400FFEE34C0FEE433FDE433FC120000B1
:10110300E50024FFFFEF25E025E0FEE42400FFEEE9
:1011130034C0FEE433FDE433FC7B017A00790075CF
:10112300000075003A1200007F541200007BFF7A22
:101133003879317500027F0212000090000074FFBD
:10114300F00212FA7B017A007900123E6EE4FBFA98
:10115300797A7844122AE9122CCD9000001231B525
:10116300E4FFFEFDFC900000E0F8A3E0F9A3E0FA41
:10117300A3E0FBC31231A450030213007FC07ED44B
:101183007D017C00900000E0F8A3A3A3E0D312311B
:10119300A440030213007F54120000E50024FFFF64
:1011A300EF25E025E0FEE42400FFEE34C0FEE43347
:1011B300FDE433FC7B017A00790075000075003A89
:1011C300120000900000E0900000F0900000E0901A
:1011D3000000F0900000E0FCA3E0FDA3E0FEA3E02C
:1011E300FF9000001231B5900000E0FCA3E0FDA3E6
:1011F300E0FEA3E0FF9000001231B5900000E0FC98
:10120300A3E0FDA3E0FEA3E0FF9000001231B59040
:101213000000E0FCA3E0FDA3E0FEA3E0FF900000DC
:101223001231B5900000E0FCA3E0FDA3E0FEA3E0D3
:10123300FF9000001231B5900000E0FCA3E0FDA395
:10124300E0FEA3E0FF9000001231B5900000E0FF44
:10125300A3E0900000CFF0A3EFF0900000E0FCA328
:10126300E0FDA3E0FEA3E0FF9000001231B5900083
:1012730000E0FFA3E0900000CFF0A3EFF0900000A8
:10128300E0FCA3E0FDA3E0FEA3E0FF900000123129
:10129300B578007C007D017B017A0079001232F47D
:1012A300E50024FFFFEF25E025E0FEE42400FFEE48
:1012B30034C0FEE433FDE433FC120000E50024FFF8
:1012C300FFEF25E025E0FEE42400FFEE34C0FEE45A
:1012D30033FDE433FC7B017A00790075000075006F
:1012E3003A1200007F541200007BFF7A387931757F
:1012F30000027F0212000012000002265030000993
:101303007BFF7A3879461200007D047F0F120000BC
:10131300E47800F6022650900000E06420600302A7
:1013230013ED7800E67016900000E0FCA3E0FDA347
:10133300E0FEA3E0FF9000001231B5804C7B017A00
:10134300007900123E6EE4FBFA797A7844122AE9B6
:10135300122CCD9000001231B5E4FFFEFDFC90008D
:1013630000E0F8A3E0F9A3E0FAA3E0FBC31231A481
:10137300405D7FC07ED47D017C00900000E0F8A337
:10138300A3A3E0D31231A450467D047F0F120000C3
:101393007530FF753138753209900000E0FCA3E029
:1013A300FDA3E0FEA3E0FFE4122C8FE4FBFA797ABD
:1013B3007844122BF28F368E358D348C337B017A41
:1013C3000079001233AB900000742BF00217433006
:1013D30000097BFF7A387966120000900000123111
:1013E300C1000000007D0302173A7800E6600302A3
:1013F300156E900000E0FCA3E0FDA3E0FEA3E0FF78
:101403009000001231B5E50024FFFFEF25E025E051
:10141300FEE42400FFEE34C0FEE433FDE433FC7B42
:10142300017A00790075000075003A1200009000FF
:1014330000E0900000F0900000E0900000F09000C9
:1014430000E0FCA3E0FDA3E0FEA3E0FF9000001298
:1014530031B5900000E0FCA3E0FDA3E0FEA3E0FFB4
:101463009000001231B5900000E0FCA3E0FDA3E082
:10147300FEA3E0FF9000001231B5900000E0FCA352
:10148300E0FDA3E0FEA3E0FF9000001231B5900061
:1014930000E0FCA3E0FDA3E0FEA3E0FF9000001248
:1014A30031B5900000E0FCA3E0FDA3E0FEA3E0FF64
:1014B3009000001231B5900000E0FFA3E09000001F
:1014C300CFF0A3EFF0900000E0FCA3E0FDA3E0FE6B
:1014D300A3E0FF9000001231B578007C007D017B12
:1014E300017A0079001232F4900000E0FFA3E0904B
:1014F3000000CFF0A3EFF0900000E0FCA3E0FDA319
:10150300E0FEA3E0FF9000001231B5E50024FFFFE9
:10151300EF25E025E0FEE42400FFEE34C0FEE433D3
:10152300FDE433FC120000E50024FFFFEF25E02576
:10153300E0FEE42400FFEE34C0FEE433FDE433FCBC
:101543007B017A00790075000075003A1200007F74
:10155300541200007BFF7A3879317500027F021242
:10156300000090000074FFF00217277B017A0079D6
:1015730000123E6EE4FBFA797A7844122AE9122CBF
:10158300CD9000001231B5E4FFFEFDFC900000E0B9
:10159300F8A3E0F9A3E0FAA3E0FBC31231A45003DC
:1015A30002172C7FC07ED47D017C00900000E0F800
:1015B300A3A3A3E0D31231A4400302172C9000008D
:1015C3007420F07F54120000E50024FFFFEF25E0B4
:1015D30025E0FEE42400FFEE34C0FEE433FDE433F3
:1015E300FC7B017A00790075000075003A12000057
:1015F300900000E0900000F0900000E0900000F008
:10160300900000E0FCA3E0FDA3E0FEA3E0FF900058
:10161300001231B5900000E0FCA3E0FDA3E0FEA3BF
:10162300E0FF9000001231B5900000E0FCA3E0FD64
:10163300A3E0FEA3E0FF9000001231B5900000E0AC
:10164300FCA3E0FDA3E0FEA3E0FF9000001231B590
:10165300900000E0FCA3E0FDA3E0FEA3E0FF900008
:10166300001231B5900000E0FCA3E0FDA3E0FEA36F
:10167300E0FF9000001231B5900000E0FFA3E0907E
:101683000000CFF0A3EFF0900000E0FCA3E0FDA387
:10169300E0FEA3E0FF9000001231B5900000E0FFF0
:1016A300A3E0900000CFF0A3EFF0900000E0FCA3D4
:1016B300E0FDA3E0FEA3E0FF9000001231B5780047
:1016C3007C007D017B017A0079001232F4E500246D
:1016D300FFFFEF25E025E0FEE42400FFEE34C0FE2B
:1016E300E433FDE433FC120000E50024FFFFEF25A3
:1016F300E025E0FEE42400FFEE34C0FEE433FDE425
:1017030033FC7B017A00790075000075003A120002
:10171300007F541200007BFF7A3879317500027F15
:101723000212000012000080173000097BFF7A3894
:1017330079871200007D047F0F120000E47800F621
:10174300022650900000E0FFB401099000007404E9
:10175300F002185FEFB402099000007405F002185C
:101763005FEFB403099000007406F002185FEFB452
:1017730004069000007407F002185F900000E0FF79
:10178300B401089000007401F08016EFB4020890D1
:1017930000007402F0800AEFB403069000007403A3
:1017A300F002185F900000E0FFB40108900000749D
:1017B3000DF08022EFB40208900000740EF0801642
:1017C300EFB40308900000740FF0800AEFB404062E
:1017D3009000007410F002185F900000E0FFB40165
:1017E300089000007411F08022EFB402089000000A
:1017F3007412F08016EFB403089000007413F080A5
:101803000AEFB404069000007414F0804F900000B7
:10181300E0FFB401089000007408F0803FEFB402C9
:10182300089000007409F08033EFB40308900000BF
:10183300740AF08027EFB4040F900000E0B40108AD
:10184300900000740BF08014900000E0B4040D903D
:101853000000E0B40F06900000740CF012000002C8
:101863000084900000E0642160030219387800E6E8
:101873007016900000E0FCA3E0FDA3E0FEA3E0FFF0
:101883009000001231B5804C7B017A007900123E42
:101893006EE4FBFA797A7844122AE9122CCD90008F
:1018A300001231B5E4FFFEFDFC900000E0F8A3E078
:1018B300F9A3E0FAA3E0FBC31231A4405D7FC07E2D
:1018C300D47D017C00900000E0F8A3A3A3E0D31231
:1018D30031A450467D047F0F1200007530FF75312F
:1018E30038753209900000E0FCA3E0FDA3E0FEA3FD
:1018F300E0FFE4122C8FE4FBFA797A7844122BF29E
:101903008F368E358D348C337B017A007900123318
:10191300AB900000742CF0021C9D3000097BFF7A11
:101923003879A71200009000001231C100000000B6
:101933007D03021C947800E66003021AB99000004C
:10194300E0FCA3E0FDA3E0FEA3E0FF900000123162
:10195300B5E50024FFFFEF25E025E0FEE42400FFCA
:10196300EE34C0FEE433FDE433FC7B017A007900FE
:1019730075000075003A120000900000E09000002E
:10198300F0900000E0900000F0900000E0FCA3E085
:10199300FDA3E0FEA3E0FF9000001231B59000002C
:1019A300E0FCA3E0FDA3E0FEA3E0FF900000123102
:1019B300B5900000E0FCA3E0FDA3E0FEA3E0FF90F0
:1019C30000001231B5900000E0FCA3E0FDA3E0FEAF
:1019D300A3E0FF9000001231B5900000E0FCA3E00B
:1019E300FDA3E0FEA3E0FF9000001231B5900000DC
:1019F300E0FCA3E0FDA3E0FEA3E0FF9000001231B2
:101A0300B5900000E0FFA3E0900000CFF0A3EFF05B
:101A1300900000E0FCA3E0FDA3E0FEA3E0FF900044
:101A2300001231B5900000E0FFA3E0900000CFF07A
:101A3300A3EFF0900000E0FCA3E0FDA3E0FEA3E031
:101A4300FF9000001231B578007C007D017B017AA4
:101A53000079001232F4E50024FFFFEF25E025E0D2
:101A6300FEE42400FFEE34C0FEE433FDE433FC1255
:101A73000000E50024FFFFEF25E025E0FEE424005D
:101A8300FFEE34C0FEE433FDE433FC7B017A0079DE
:101A93000075000075003A1200007F541200007BAD
:101AA300FF7A3879317500027F021200009000003E
:101AB30074FFF0021C777B017A007900123E6EE41A
:101AC300FBFA797A7844122AE9122CCD900000129D
:101AD30031B5E4FFFEFDFC900000E0F8A3E0F9A3BC
:101AE300E0FAA3E0FBC31231A45003021C7C7FC0C5
:101AF3007ED47D017C00900000E0F8A3E0F9A3E030
:101B0300FAA3E0FBD31231A44003021C7C90000033
:101B13007421F07F54120000E50024FFFFEF25E05D
:101B230025E0FEE42400FFEE34C0FEE433FDE4339D
:101B3300FC7B017A00790075000075003A12000001
:101B4300900000E0900000F0900000E0900000F0B2
:101B5300900000E0FCA3E0FDA3E0FEA3E0FF900003
:101B6300001231B5900000E0FCA3E0FDA3E0FEA36A
:101B7300E0FF9000001231B5900000E0FCA3E0FD0F
:101B8300A3E0FEA3E0FF9000001231B5900000E057
:101B9300FCA3E0FDA3E0FEA3E0FF9000001231B53B
:101BA300900000E0FCA3E0FDA3E0FEA3E0FF9000B3
:101BB300001231B5900000E0FCA3E0FDA3E0FEA31A
:101BC300E0FF9000001231B5900000E0FFA3E09029
:101BD3000000CFF0A3EFF0900000E0FCA3E0FDA332
:101BE300E0FEA3E0FF9000001231B5900000E0FF9B
:101BF300A3E0900000CFF0A3EFF0900000E0FCA37F
:101C0300E0FDA3E0FEA3E0FF9000001231B57800F1
:101C13007C007D017B017A0079001232F4E5002417
:101C2300FFFFEF25E025E0FEE42400FFEE34C0FED5
:101C3300E433FDE433FC120000E50024FFFFEF254D
:101C4300E025E0FEE42400FFEE34C0FEE433FDE4CF
:101C530033FC7B017A00790075000075003A1200AD
:101C6300007F541200007BFF7A3879317500027FC0
:101C73000212000012000080213000097BFF7A3835
:101C830079C81200009000001231C1000000007DED
:101C9300047F0F120000E47800F602265090000043
:101CA300E064236003021D697800E670169000006B
:101CB300E0FCA3E0FDA3E0FEA3E0FF9000001231EF
:101CC300B5804D7B017A007900123E6EE4FBFA7910
:101CD3007A7844122AE9122CCD9000001231B5E42F
:101CE3007F01FEFDFC900000E0F8A3E0F9A3E0FA19
:101CF300A3E0FBC31231A440487FC07ED47D017CA6
:101D030000900000E0F8A3A3A3E0D31231A4503164
:101D13007D037F091200007530FF7531387532E895
:101D2300900000E0FCA3E0FDA3E0FEA3E0F5368E07
:101D3300358D348C337B017A0079001233AB021E6C
:101D4300113000097BFF7A3879EE1200007D027FA3
:101D53000A120000E47800F67F531200009000009E
:101D63007423F00221FF900000E064246003021E4C
:101D73001A7800E67016900000E0FCA3E0FDA3E0F3
:101D8300FEA3E0FF9000001231B580457B017A008D
:101D93007900123CD1EE3395E0FDFC900000123146
:101DA300B5E47F01FEFDFC900000E0F8A3E0F9A399
:101DB300E0FAA3E0FBC31231A4403CE47FE07E2EB3
:101DC300FDFC900000E0F8A3A3A3E0D31231A450DC
:101DD300267D037F131200007530FF75313975328C
:101DE3000A900000E0F533A3E0F5347B017A007933
:101DF300001233AB021EBA3000097BFF7A39790F28
:101E03001200007D037F09120000E47800F69000C1
:101E1300007424F00221FF900000E06425600302B7
:101E23001EC37800E67011900000E0FFA3E090006D
:101E330000CFF0A3EFF080237B017A007900123CFE
:101E4300D1900000EEF0A3EFF0C3EE94004051D325
:101E5300E0940A900000E0940050457D047F0D1249
:101E630000007530FF753138753209900000E0FCD1
:101E7300A3E0FDA3E0FEA3E0FFE4122C8FE4FBFA52
:101E8300797A7844122BF28F368E358D348C337BEE
:101E9300017A0079001233AB7F531200000221F95B
:101EA3003000097BFF7A39792E1200007D037F13FE
:101EB300120000E47800F69000007425F00221FF80
:101EC300900000E0642660030221FF7800E66003CF
:101ED300021FCF900000E0FCA3E0FDA3E0FEA3E01F
:101EE300FF9000001231B5E50024FFFFEF25E02548
:101EF300E0FEE42400FFEE34C0FEE433FDE433FCF3
:101F03007B017A00790075000075003A1200009099
:101F13000000E0900000F0900000E0900000F090DE
:101F23000000E0FCA3E0FDA3E0FEA3E0FF900000BF
:101F33001231B5900000E0FCA3E0FDA3E0FEA3E0B6
:101F4300FF9000001231B5900000E0FCA3E0FDA378
:101F5300E0FEA3E0FF9000001231B5900000E0FC2A
:101F6300A3E0FDA3E0FEA3E0FF9000001231B590D3
:101F73000000E0FCA3E0FDA3E0FEA3E0FF9000006F
:101F83001231B5900000E0FCA3E0FDA3E0FEA3E066
:101F9300FF9000001231B578007C007D017B017A4F
:101FA3000079001232F4900000E0FFA3E0900000FB
:101FB300CFF0A3EFF0900000E0FCA3E0FDA3E0FE70
:101FC300A3E0FF9000001231B50221617B017A008A
:101FD3007900123E6EE4FBFA797A7844122AE91208
:101FE3002CCD9000001231B5E4FFFEFDFC90000003
:101FF300E0F8A3E0F9A3E0FAA3E0FBC31231A45095
:10200300030221E27FC07ED47D017C00900000E0CA
:10201300F8A3A3A3E0D31231A440030221E290006A
:1020230000E0FEA3E0FFE4FCFD900000E0F8A3A3C2
:10203300A3E0123147900000E0F8A3E0F9A3E0FA2F
:10204300A3E02FFFEA3EFEE93DFDE83CFCA3E0F8F8
:10205300A3E0F9A3E0FAA3E0FBC3EF9BFFEE9AFE34
:10206300ED99FDEC98FC7BC07AD479017800D3120A
:1020730031A450030221CA7F54120000E50024FF5B
:10208300FFEF25E025E0FEE42400FFEE34C0FEE48C
:1020930033FDE433FC7B017A0079007500007500A1
:1020A3003A120000900000E0900000F0900000E081
:1020B300900000F0900000E0FCA3E0FDA3E0FEA38D
:1020C300E0FF9000001231B5900000E0FCA3E0FDBA
:1020D300A3E0FEA3E0FF9000001231B5900000E002
:1020E300FCA3E0FDA3E0FEA3E0FF9000001231B5E6
:1020F300900000E0FCA3E0FDA3E0FEA3E0FF90005E
:10210300001231B5900000E0FCA3E0FDA3E0FEA3C4
:10211300E0FF9000001231B5900000E0FCA3E0FD69
:10212300A3E0FEA3E0FF9000001231B5900000E0B1
:10213300FFA3E0900000CFF0A3EFF0900000E0FCDD
:10214300A3E0FDA3E0FEA3E0FF9000001231B57809
:10215300007C007D017B017A0079001232F4E500F6
:1021630024FFFFEF25E025E0FEE42400FFEE34C06A
:10217300FEE433FDE433FC120000E50024FFFFEF2F
:1021830025E025E0FEE42400FFEE34C0FEE433FD49
:10219300E433FC7B017A00790075000075003A1284
:1021A30000007F541200007D017F0C1200007BFFB2
:1021B3007A39794A1200007BFF7A38793175000247
:1021C3007F0212000080137BFF7A39794D7500027C
:1021D3007F021200007F54120000120000801D30A5
:1021E30000097BFF7A3979621200007D047F0D12AA
:1021F3000000E47800F69000007426F0022650E513
:102203000024FFFFEF25E025E0FEE42400FFEE3489
:10221300C0FEE433FDE433FC7B017A0079007500F2
:102223000075003A120000120000020084900000C2
:10223300E0642270647800E6703B900000E0FFA346
:10224300E0900000CFF0A3EFF075000F7530FF753D
:1022530031387532E8900000E0FCA3E0FDA3E0FE16
:10226300A3E0F5368E358D348C337B017A0079000B
:102273001233AB80147B017A007900123CD19000B9
:1022830000EEF0A3EFF075000F7D047F0F12000046
:10229300900000742DF00226507800E660030224BB
:1022A3000E900000E0FCA3E0FDA3E0FEA3E0FF909E
:1022B30000001231B5E50024FFFFEF25E025E0FE25
:1022C300E42400FFEE34C0FEE433FDE433FC7B0181
:1022D3007A00790075000075003A12000090000042
:1022E300E0900000F0900000E0900000F09000000B
:1022F300E0FCA3E0FDA3E0FEA3E0FF9000001231A9
:10230300B5900000E0FCA3E0FDA3E0FEA3E0FF9096
:1023130000001231B5900000E0FCA3E0FDA3E0FE55
:10232300A3E0FF9000001231B5900000E0FCA3E0B1
:10233300FDA3E0FEA3E0FF9000001231B590000082
:10234300E0FCA3E0FDA3E0FEA3E0FF900000123158
:10235300B5900000E0FCA3E0FDA3E0FEA3E0FF9046
:1023630000001231B5900000E0FCA3E0FDA3E0FE05
:10237300A3E0FF9000001231B5900000E0FCA3E061
:10238300FDA3E0FEA3E0FF9000001231B590000032
:10239300E0FFA3E0900000CFF0A3EFF0900000E097
:1023A300FCA3E0FDA3E0FEA3E0FF9000001231B523
:1023B30078007C007D017B017A0079001232F4E51C
:1023C3000024FFFFEF25E025E0FEE42400FFEE34C8
:1023D300C0FEE433FDE433FC120000E50024FFFFFC
:1023E300EF25E025E0FEE42400FFEE34C0FEE433F5
:1023F300FDE433FC7B017A00790075000075003A37
:102403001200007F541200000226257B017A007916
:1024130000123CD1EE3395E0FDFC9000001231B583
:10242300E47FE87E03FDFC900000E0F8A3E0F9A35D
:10243300E0FAA3E0FB1231477BC07AD4790178003C
:10244300C31231A45003022643900000E0FEA3E030
:10245300FFE4FCFD900000E0F8A3E0F9A3E0FAA399
:10246300E0FB123147900000E0F8A3E0F9A3E0FAA3
:10247300A3E02FFFEA3EFEE93DFDE83CFCA3E0F8C4
:10248300A3E0F9A3E0FAA3E0FBC3EF9BFFEE9AFE00
:10249300ED99FDEC98FCC004C005C006C007E47FBD
:1024A300E87E03FDFC900000E0F8A3E0F9A3E0FA66
:1024B300A3E0FB123147A804A905AA06AB07D0077E
:1024C300D006D005D004D31231A450030226307FA6
:1024D30054120000E50024FFFFEF25E025E0FEE4B1
:1024E3002400FFEE34C0FEE433FDE433FC7B017AC9
:1024F30000790075000075003A120000900000E0BA
:10250300900000F0900000E0900000F0900000E0E8
:10251300FCA3E0FDA3E0FEA3E0FF9000001231B5B1
:10252300900000E0FCA3E0FDA3E0FEA3E0FF900029
:10253300001231B5900000E0FCA3E0FDA3E0FEA390
:10254300E0FF9000001231B5900000E0FCA3E0FD35
:10255300A3E0FEA3E0FF9000001231B5900000E07D
:10256300FCA3E0FDA3E0FEA3E0FF9000001231B561
:10257300900000E0FCA3E0FDA3E0FEA3E0FF9000D9
:10258300001231B5900000E0FCA3E0FDA3E0FEA340
:10259300E0FF9000001231B5900000E0FCA3E0FDE5
:1025A300A3E0FEA3E0FF9000001231B5900000E02D
:1025B300FFA3E0900000CFF0A3EFF0900000E0FC59
:1025C300A3E0FDA3E0FEA3E0FF9000001231B57885
:1025D300007C007D017B017A0079001232F4E50072
:1025E30024FFFFEF25E025E0FEE42400FFEE34C0E6
:1025F300FEE433FDE433FC120000E50024FFFFEFAB
:1026030025E025E0FEE42400FFEE34C0FEE433FDC4
:10261300E433FC7B017A00790075000075003A12FF
:10262300000090000074FFF012000080207BFF7A0E
:102633003979817500027F02120000120000800DBB
:102643007D047F0F12000090000074FFF0E4780017
:10265300F6020084120000020084120000020084CB
:10266300120000020084900000E0641F707678007E
:10267300E67025900000E0900000F07530FF7531A2
:102683003975320A900000E0753300F5347B017A26
:102693000079001233AB8017E47800F67B017A00EF
:1026A3007900123CD1900000EFF0D39403500A7DDF
:1026B300047F0E120000022A1C7D037F0E1200000D
:1026C3007530FF75313975320A900000E0753300BB
:1026D300F5347B017A0079001233AB900000741F4C
:1026E300F0020084900000E064206003020084781C
:1026F30000E66003022871900000E0900000F09073
:10270300000074FFF07F54120000E50024FFFFEF88
:1027130025E025E0FEE42400FFEE34C0FEE433FDB3
:10272300E433FC7B017A00790075000075003A12EE
:102733000000900000E0FCA3E0FDA3E0FEA3E0FFA7
:102743009000001231B5900000E0FCA3E0FDA3E08F
:10275300FEA3E0FF9000001231B5900000E0FCA35F
:10276300E0FDA3E0FEA3E0FF9000001231B590006E
:1027730000E0FCA3E0FDA3E0FEA3E0FF9000001255
:1027830031B5900000E0FCA3E0FDA3E0FEA3E0FF71
:102793009000001231B5900000E0FCA3E0FDA3E03F
:1027A300FEA3E0FF9000001231B5900000E0FCA30F
:1027B300E0FDA3E0FEA3E0FF9000001231B590001E
:1027C30000E0FCA3E0FDA3E0FEA3E0FF9000001205
:1027D30031B5900000E0FFA3E0900000CFF0A3EF3D
:1027E300F0900000E0FCA3E0FDA3E0FEA3E0FF9077
:1027F30000001231B578007C007D017B017A0079FD
:10280300001232F4900000E0FFA3E0900000CFF04C
:10281300A3EFF0900000E0FCA3E0FDA3E0FEA3E043
:10282300FF9000001231B5E50024FFFFEF25E025FE
:10283300E0FEE42400FFEE34C0FEE433FDE433FCA9
:10284300120000E50024FFFFEF25E025E0FEE4246D
:1028530000FFEE34C0FEE433FDE433FC7B017A0079
:10286300790075000075003A120000022AA6E47888
:1028730000F67B017A007900123CD1900000EFF062
:10288300D3940340030229FA90000074FFF07F54AD
:10289300120000E50024FFFFEF25E025E0FEE4241D
:1028A30000FFEE34C0FEE433FDE433FC7B017A0029
:1028B300790075000075003A120000900000E0FCFA
:1028C300A3E0FDA3E0FEA3E0FF9000001231B5906A
:1028D3000000E0FCA3E0FDA3E0FEA3E0FF90000006
:1028E3001231B5900000E0FCA3E0FDA3E0FEA3E0FD
:1028F300FF9000001231B5900000E0FCA3E0FDA3BF
:10290300E0FEA3E0FF9000001231B5900000E0FC70
:10291300A3E0FDA3E0FEA3E0FF9000001231B59019
:102923000000E0FCA3E0FDA3E0FEA3E0FF900000B5
:102933001231B5900000E0FCA3E0FDA3E0FEA3E0AC
:10294300FF9000001231B5900000E0FCA3E0FDA36E
:10295300E0FEA3E0FF9000001231B5900000E0FF1D
:10296300A3E0900000CFF0A3EFF0900000E0FCA301
:10297300E0FDA3E0FEA3E0FF9000001231B5780074
:102983007C007D017B017A0079001232F490000013
:10299300E0FFA3E0900000CFF0A3EFF0900000E091
:1029A300FCA3E0FDA3E0FEA3E0FF9000001231B51D
:1029B300E50024FFFFEF25E025E0FEE42400FFEE21
:1029C30034C0FEE433FDE433FC120000E50024FFD1
:1029D300FFEF25E025E0FEE42400FFEE34C0FEE433
:1029E30033FDE433FC7B017A007900750000750048
:1029F3003A120000022AA67D047F0B1200007530F4
:102A0300FF75313975320A900000E0753300F534F3
:102A13007B017A0079001233AB9000007420F0023E
:102A23000084E50024FEB41D004003020084902AC4
:102A33003F75F003A4C58325F0C58373022AA10261
:102A43000084022AA1020084020084022AA1020057
:102A530084022AA1022A96022AAC022AAC022AACD8
:102A6300022AAC022AA1022AA1022AA1022AA10255
:102A73002AA1022AA1022AA1022AA1020084022A6F
:102A8300A1022AD5022AD5022AD5022AD5022AD59D
:102A9300022AA17F541200001200000200847F5416
:102AA3001200001200000200847BFF7A387931752E
:102AB30000027F021200007F541200007D017F0C90
:102AC3001200007BFF7A39794A12000012000002DB
:102AD30000847F54120000120000020084E4F58495
:062AE30043EF1002008425
:10399B008F2D8D2E900000E024E1B4110040030226
:1039AB003B2D9039BB75F003A4C58325F0C58373FC
:1039BB00023A19023A19023A190239EE023A19027D
:1039CB003A84023A71023A19023AF0023AF0023B97
:1039DB002D023B2D023A19023A190239EE023A191D
:1039EB00023AC97800E6C3952E4003023B2DAF2D5A
:1039FB001200007800E6FF2400F582E43400F58322
:103A0B00E52DF0E52E14FEEFC39E505806227800EC
:103A1B00E6FFD3952E4003023B2DEFB40229AF2DC9
:103A2B001200007F2E1200007800E6062400F582BB
:103A3B00E43400F583E52DF0E6062400F582E4344A
:103A4B0000F583742EF022AF2D1200007800E6FFF4
:103A5B002400F582E43400F583E52DF0EFC39404E4
:103A6B0050020622807D7800E6700280117800E615
:103A7B0064016003023B2D802F7800E670077F53B3
:103A8B0012000080067800E6B40116AF2D1200007C
:103A9B007800E6062400F582E43400F583E52DF08A
:103AAB00227800E66402707AAF2D1200007800E6EF
:103ABB002400F582E43400F583E52DF0805F780077
:103ACB00E6D3952E505CAF2D1200007800E6FF2454
:103ADB0000F582E43400F583E52DF0EFC3952E500D
:103AEB0002062280387800E6D3952E5035AF2D1282
:103AFB0000007800E6FF2400F582E43400F583E54E
:103B0B002DF0EF64016004EFB404087F4D12000048
:103B1B007800067800E6C3952E500206227F4C12E1
:033B2B0000002275
:103C1400C200E4900000F0C2007800F6F500F078ED
:103C240000F6C200FE7F2DFD7B017A00790012337D
:103C3400117E007F3A7D007B017A007900123311F6
:103C44007E007F3A7D007B017A0079001233117E79
:103C5400007F2D7D007B017A0079001233117E0CE8
:103C64007F007D007B017A007900123311780E7693
:103C740001780EE6FFD394325052EF24FFFFEF2574
:103C8400E025E0FEE42400FFE43EFEE43401FDE42C
:103C940033FC7B017A00790075000075002D120059
:103CA400007530FF753139753296753300753404FB
:103CB4007B017A007900123E0BEF7008900000E05F
:0C3CC40004F08003780006780E0680A54E
:013CD00022D1
:102AE900EC4D6011E8497017ED33EC3304600DE4E7
:102AF900FCFFFEFD22E933E8330470F8022D391298
:102B09002D0458046009E4CC248150062850090298
:102B19002D43284003022D40C0E0EB4A7044B980A0
:102B290006D0E0FB022D2FEF4E701CBD8008EBFF95
:102B3900EAFEE9FD80EBE98DF0A4FEE5F0022BD277
:102B4900E9CDF9EAFEEBFFEF89F0A4FCE5F0CE89C7
:102B5900F0A42EFFE435F0CD89F0A42DFEE435F084
:102B69008067EF4E7005BD80D780C3EF8BF0A4ACB2
:102B7900F0EE8BF0A42CFCE435F0F8EF8AF0A42CED
:102B8900E5F038FCE433CB8DF0A42CFCE5F03BF800
:102B9900EE8AF0A42CFCE5F038F8E433CF89F0A4F0
:102BA9002CFCE5F038CF3400CE89F0A42FFFE5F0F6
:102BB9003EFEE433C98DF0A42EFEE5F039CD8AF04E
:102BC900A42FFFE5F03EFEE43DFD33D0E0FB5007C6
:102BD9000BBB000F022D43EC2CFCEF33FFEE33FE51
:062BE900ED33FD022D1B7F
:102BEF00022D43EC5D046005E859047003022D3992
:102BFF00122D04580460F6EC4860F2EC7004FDFEF0
:102C0F00FF22C860DB2481C85009C39860025006B8
:102C1F00022D409850CAF582E9294B4A7005AB82C4
:102C2F00022D2F75F0007C1A7880C3EF9BEE9AED82
:102C3F0099400DC3EF9BFFEE9AFEED99FDE842F030
:102C4F00DC23ACF0D0E0FFD0E0FED0E0FDAB822083
:102C5F00E7101BEB60BAEC2CFCEF33FFEE33FEED0D
:102C6F0033FD022D1BE803F830E705C0F075F000C7
:102C7F00EF2FFFEE33FEED33FD40B830E7C280AAF1
:102C8F0075F020800E75F010800575F0087D007EC0
:102C9F00007F003392D530D503123196EC334010BC
:102CAF00EF33FFEE33FEED33FDEC33FCD5F0ED22C9
:0E2CBF00E5F0247EA2D513CC92E7CDCEFF2205
:102CCD00EDD2E7CD33EC3392D524814006E4FFFEFF
:102CDD00FDFC22FCE4CFCECDCC24E0501174FF805E
:102CED00EDC3CC13CCCD13CDCE13CECF13CF0470FB
:072CFD00F030D5DE02319634
:10334F00E5442430F8E6054422782D300702783022
:10335F00E475F0011231F20230EF2000EB7F2ED234
:10336F00008018EF540F2490D43440D4FF30040B56
:10337F00EF24BFB41A0050032461FFE54560021526
:10338F00450548E5487002054730070D782DE4756F
:10339F00F0011231F2EF023135023EB67403D2075B
:1033AF008003E4C207F5448B2D8A2E892FE4F5455F
:1033BF00F547F548E54560077F2012338A80F5759C
:1033CF0046FFC201C200C202C203C205C206C20842
:1033DF00123358FF700D3007057F0012339BAF4833
:1033EF00AE4722B4255FC2D5C204123358FF24D092
:1033FF00B40A00501A75F00A784530D50508B6FFA3
:10340F000106C6A426F620D5047002D20380D92463
:10341F00CFB41A00EF5004C2E5D204023688D201AD
:10342F0080C6D20080C0D20280BCD2D580BAD2056D
:10343F0080B47F2012338A2002077401B545004003
:10344F00F112334FFF12338A0233C3D208D20680F0
:10345F009512334FFB12334FFA12334FF94A4B7019
:10346F0006797F7A377BFF20022EE545602A7E00A2
:10347F008E8275830012310860060EEE654670F07D
:10348F00C2D5EBC0E0EAC0E0E9C0E0EE1236E8D00A
:10349F00E0F9D0E0FAD0E0FB1230EFFF60AAEBC00A
:1034AF00E0EAC0E0E9C0E012338AD0E02401F9D0AD
:1034BF00E03400FAD0E0FBE5460460DCD546D98065
:1034CF0087D20280A21236CB60F7E5467001041254
:1034DF002D4EA946600DE546600914F54612377268
:1034EF00EF60F3EA30E702F404C3995077EAF4256A
:1034FF00460430E701E404F546800D1236CB60C177
:10350F00EA05462546122D4EEA7843F630E701E4E8
:10351F00254604D54604200501141236E8E4C0E020
:10352F001237727843E6601320E70714F6123372EE
:10353F00802204F6D0E014C0E07F00123372E5461B
:10354F0060071233691546800B300503123369D0BB
:10355F00E00233C3D0E00480C51236CB60A0E5464D
:10356F0004122D4E7843EAF6E54620050260010469
:05357F0024041236E8EF
:1035840074FF04C0E0123772123372E5462005025C
:103594006003123369D0E0B546E87F4512337C7886
:1035A40043E67F2B30E7047F2DF404C0E012338A16
:1035B400D0E075F00A84C0F0123373D0E012337394
:1035C4000233C3791080027908C206C2088008D287
:1035D400D5790A8004790AC2D5E546047002F54615
:1035E400E4FAFDFEFF12334FFC7B08200113123373
:1035F4004FFD7B1030000A12334FFE12334FFF7B16
:1036040020EC3382D592D55013C3E43000069FFFDB
:10361400E49EFEE42001039DFDE49CFCE4CBF8C29F
:1036240001EC700CCFCECDCCE824F8F870F3801701
:10363400C3EF33FFEE33FEED33FDEC33FCEB33FB32
:10364400994002FB0FD8E9EB300105F8D0E0C448FB
:10365400B201C0E00AEC4D4E4F78207B0070C2EA04
:10366400B5460040BCC0E01236EAD0F0D0E02001FC
:1036740004C4C0E0C4B201C0F0123373D0F0D5F07A
:10368400EB0233C312320234605335C75834314C21
:10369400342D4235CB4F35D34435D34934464335A5
:1036A400D955350A4635684534D447379F503435A3
:1036B4002D34392E345C2B343D23345A2037882A58
:1036C40033F54800003454E546B4FF03754606124A
:1036D400334FFC12334FFD12334FFE12334FFF783A
:1036E4003C022D7D790AA2D5200314300509B910B6
:1036F400020404B9080104A2D520060250010420E2
:1037040002689202B545005034C0E07F20300319AE
:103714007F30A20272067205500F123741C202C2F4
:1037240006C205C2087F30800F300503E9C0E012ED
:10373400338A300503D0E0F9D0E0B545CC30051725
:103744007F30B9100C12338A7F583004077F788099
:1037540003B9080312338A3002057F2D02338A7FAE
:10376400202008F87F2B2006F322920280CF7F00CE
:10377400B407005005243CF8E6FF22286E756C6CF3
:103784002900D20112334F3001F8C201784530D5F7
:103794000108F60233F52D5043495812334F2403E0
:1037A400B405004001E490379A9312337B743A12C3
:0A37B400337BD2037545040235C7CC
:103E6E00D2008B2D8A2E892F123EAAC0E0FF123E61
:103E7E00DDD0E040F3123B41400122ECC0E0EDC04A
:103E8E00E0EEC0E0EFC0E0123EAAD0F0AFF0D0F00E
:103E9E00AEF0D0F0ADF0D0F0ACF080D9E475F0011A
:083EAE00782D1231F20230EF11
:102D0400E9D2E7C933E833F892D5EDD2E7CD33EC15
:072D140033FC5002B2D5228E
:102D1B00EC30E7100FBF000C0EBE00080DBD000419
:102D2B000BEB6014A2D5EB13FCED92E7FD2274FFC5
:102D3B00FCFDFEFF22E480F8A2D574FF13FC7D801E
:032D4B00E480EF32
:102D4E00F920E72824F950037907E4F42402FB184C
:102D5E00DBFDE624FB5014E9600DE4F618E604F6FC
:0F2D6E00B40A08E4F6D9F57401F60A22C2D52298
:102D7D00ED33EC3392D5FA602AB4FF33EDC2E77B25
:102D8D00FF60067A2D79A2E4227A2D79AB20D50445
:102D9D007A2D79A6224E614E002B494E46002D49C3
:102DAD004E4600E47A08F608DAFC7B00740722E848
:102DBD00C0E0ECC0E0EDC0E0EEC0E0EFC0E0EA75D1
:102DCD00F010A4CAABF075F04DA42BFBE435F0FC6C
:102DDD00EA2410FAEB34C5FBEC34D9FCEDC2E7FF65
:102DED0075F056A4F42411C5F0F434C58FF0A42A5F
:102DFD00E5F03BE43CF620E714122FB9D0E0FFD00C
:102E0D00E0FED0E0FDD0E0FC122BF28014F40412B1
:102E1D002FB9D0E0FFD0E0FED0E0FDD0E0FC122ACB
:102E2D00E9D0E0F8E6FAEDD2E7CD33EC332482FBBE
:102E3D00E4C3CF33CFCE33CECD33CD33DBF37B07EE
:102E4D0075F00A846004F6081B0AE5F0F6088FF0A9
:102E5D00740AA4FFACF08EF0740AA42CFEACF050F2
:102E6D00010C8DF0740AA42CFDE435F0F608DBDEC0
:032E7D00740722B5
:103B2E00C201C202C203C204F9E4F530F531FCFD54
:103B3E00FEFFE91000EA20030CB42D04D203D322B9
:103B4E00B42B02D32224D0504794095041240A307A
:103B5E000415F88531F0740AA42872E74051C5F0B7
:103B6E00704D85F031D322D202C0E0E4FBFA792009
:103B7E007841122AE9ECF8EDF9EEFAEFFBD0E0FC11
:103B8E00E4122C99122E873001B41530D322240A58
:103B9E00200420B4FE0720011AD201D32224EB60A8
:103BAE000424E0700EA2039201D204C203D322C3F6
:103BBE00022D39E430040BE531300302F404A20186
:103BCE0092033002EA253020D2E5A2E79204500299
:103BDE00F404B4260050D8CCC0E0EDC0E0EEC0E056
:103BEE00EFC0E0EC122FB9D0E0FFD0E0FED0E0FD48
:103BFE00D0E0FC200405122AE98003122BF23003D8
:063C0E0003122F78C3220F
:102E8000022D39E86480F8E933E83360110460F01A
:102E9000ED33EC337009E8FCE9FDEAFEEBFF2204B8
:102EA00060DED3EB9FEA9EE99DE8C2E78CF0C2F7B3
:102EB00095F0400CE8CCF8E9CDF9EACEFAEBCFFB7F
:102EC000122D0485D0F05804700320D5B3E80470A7
:102ED000075002B2D5022D4392D5EC0460F7E4CC42
:102EE000C0E0C398F8603B94186008400DD0E0FB48
:102EF000022D1BE4FBFAC9FC8028E830E406E4C993
:102F0000FBE4CAFCE830E305E4C9CACBFCE854079B
:102F10006010F8C3E913F9EA13FAEB13FBEC13FCA6
:102F2000D8F130F52FC3E49CFCEF9BFFEE9AFEED49
:102F300099FDD0E0FBEF4E4D4C701222DB03022DC9
:102F400040EC2CFCEF33FFEE33FEED33FDED30E7CC
:102F5000EB022D1BEF2BFFEE3AFEED39FDD0E0FB2F
:102F600050130BBB0003022D43ED13FDEE13FEEFD8
:082F700013FFEC13FC022D1B02
:102F7800ED33EC33600A047003BD8004ECB2E7FC67
:012F88002226
:102F89003F8000004120000042C80000447A000050
:102F9900461C400047C35000497424004B189680D2
:102FA9004CBEBC205A0E1BCA6753C21C749DC5AEC9
:102FB900FB60065407601C2323122FE7EB5438608B
:102FC90009122FD3122FE2122AE9ECF8EDF9EEFAE1
:102FD900EFCB22EB122FE280F1543803241C902FFF
:102FE90089FE93FC0EEE93FD0EEE930ECE93FF2217
:03000000023D7F3F
:0C3D7F00787FE4F6D8FD758148023DC64F
:102FF900E709F608DFFA8046E709F208DFFA803EBA
:1030090088828C83E709F0A3DFFA8032E309F608A6
:10301900DFFA8078E309F208DFFA807088828C830E
:10302900E309F0A3DFFA806489828A83E0A3F608C2
:10303900DFFA805889828A83E0A3F208DFFA804C9C
:1030490080D280FA80C680D4806980F28033801073
:1030590080A680EA809A80A880DA80E280CA8033DC
:1030690089828A83ECFAE493A3C8C582C8CCC58354
:10307900CCF0A3C8C582C8CCC583CCDFE9DEE78024
:103089000D89828A83E493A3F608DFF9ECFAA9F0A3
:10309900EDFB2289828A83ECFAE0A3C8C582C8CCF9
:1030A900C583CCF0A3C8C582C8CCC583CCDFEADE12
:1030B900E880DB89828A83E493A3F208DFF980CC74
:1030C90088F0EF60010E4E60C388F0ED2402B4046D
:1030D9000050B9F582EB2402B4040050AF23234514
:0630E900822390304973C0
:1030EF00BB010689828A83E0225002E722BBFE02DF
:0930FF00E32289828A83E4932212
:10310800BB010CE58229F582E5833AF583E022507C
:1031180006E92582F8E622BBFE06E92582F8E222C6
:0D312800E58229F582E5833AF583E49322E0
:10313500BB010689828A83F0225002F722BBFE0179
:02314500F32273
:10314700E88FF0A4CC8BF0A42CFCE98EF0A42CFC27
:103157008AF0EDA42CFCEA8EF0A4CDA8F08BF0A4A5
:103167002DCC3825F0FDE98FF0A42CCD35F0FCEB04
:103177008EF0A4FEA9F0EB8FF0A4CFC5F02ECD39C9
:0F318700FEE43CFCEAA42DCE35F0FDE43CFC2236
:0E319600C3E49FFFE49EFEE49DFDE49CFC224A
:1031A400EB9FF5F0EA9E42F0E99D42F0E89C45F081
:0131B40022F8
:0C31B500ECF0A3EDF0A3EEF0A3EFF0228D
:1031C100A8828583F0D083D0821231D81231D812EF
:1031D10031D81231D8E473E493A3C583C5F0C58314
:1031E100C8C582C8F0A3C583C5F0C583C8C582C858
:0131F10022BB
:1031F200FAE6FB0808E6F925F0F618E6CA3AF622DE
:10320200D083D082F8E4937012740193700DA3A35B
:1032120093F8740193F5828883E47374029368606F
:06322200EFA3A3A380DF6F
:103EB600EFB40A07740D123EC1740A309811A8991E
:103EC600B8130CC2983098FDA899C298B811F6306C
:073ED60099FDC299F5992244
:103EDD00EFC394094005EF940E4003BF2003D38038
:033EED0001C322EC
:103E0B008B2D8A2E892FAB30AA31A9321230EFFEBF
:103E1B00AB2DAA2EA92F1230EFFF6E702BEF600D7A
:103E2B00E53415347002153314453370037F0022CB
:103E3B007401252FF52FE4352EF52E74012532F55F
:103E4B0032E43531F53180BEAB2DAA2EA92F1230BD
:103E5B00EFFFD3EE6480F8EF64809840037F01227C
:033E6B007FFF22B4
:10322800E709F60870FA8046E709F20870FA803E66
:1032380088828C83E709F0A370FA807EE309F60898
:1032480070FA8076E309F20870FA806E88828C83BF
:10325800E309F0A370FA806289828A83E0A3F60802
:1032680070FA805689828A83E0A3F20870FA804A4D
:1032780080D280FA80C680D4806580F28031801048
:1032880080A680EA809A80A880DA80E280CA8031AD
:1032980089828A83ECFAE493A3C8C582C8CCC58323
:1032A800CCF0A3C8C582C8CCC583CC70E9800D8991
:1032B800828A83E493A3F60870F9ECFAA9F0EDFB8F
:1032C8002289828A83ECFAE0A3C8C582C8CCC58368
:1032D800CCF0A3C8C582C8CCC583CC70EA80DD8990
:1032E800828A83E493A3F20870F980CE88F0ED24F3
:1032F80002B4040050C4F582EB2402B4040050BAAE
:09330800232345822390327873DF
:103CD1008B2D8A2E892FAB2DAA2EA92F1230EFFF03
:103CE100123EDD500D7401252FF52FE4352EF52EF2
:103CF10080E4D200AB2DAA2EA92F1230EFFF642B46
:103D01006004EFB42D1BAB2D052FE52FAA2E7002F9
:103D1100052E14F91230EF642D6003D38001C39294
:103D210000E4F530F531AB2DAA2EA92F1230EFFFAB
:103D3100123EF05036AB2DAA2EA92F1230EFFF33D1
:103D410095E0FEEF24D0FBEE34FFFAAE30AF317CCC
:103D5100007D0A12333DEF2BF531EE3AF530740157
:103D6100252FF52FE4352EF52E80BB300006AE3021
:0E3D7100AF318009C3E49531FFE49530FE22A6
:10331100EF4E6012EF60010EEDBB010B89828A83D3
:10332100F0A3DFFCDEFA2289F05007F709DFFCA9E0
:0C333100F022BBFEFCF309DFFCA9F02237
:103D8B00020003E493A3F8E493A34003F68001F24B
:103D9B0008DFF48029E493A3F85407240CC8C33339
:103DAB00C4540F4420C8834004F456800146F6DF08
:103DBB00E4800B0102040810204080903EFFE47E5B
:103DCB00019360BCA3FF543F30E509541FFEE493FD
:103DDB00A360010ECF54C025E060A840B8E493A3C4
:103DEB00FAE493A3F8E493A3C8C582C8CAC583CAEF
:103DFB00F0A3C8C582C8CAC583CADFE9DEE780BEA7
:013F020000BE
:10333D00EF8DF0A4A8F0CF8CF0A428CE8DF0A42EA4
:02334D00FE225E
:0F3EF000EFC394304007EF943A50028001C32291
:00000001FF
